:030000000209F9F9
:0C09F900787FE4F6D8FD758118020A40F2
:0C0B7D000A0FC0F9A4B0999282F8809091
:040B6E007F0F7E0077
:0B0B7200EF1FAC0670011E4C70F62255
:100B4000D288D2A8D2AF758901D28C53A01F7580EC
:100B5000FF43A08053A01F75800143A0A053A01F96
:0E0B6000AF0E120AF97F327E00120B7280F285
:100A850053A01F43A0EF8D8053A01FEF14B408009F
:100A9500504C900AA575F003A4C58325F0C5837352
:100AA500020AE0020ADB020AD6020AD1020ACC02D5
:100AB5000AC7020AC2020ABD75800180217580023B
:100AC500801C7580048017758008801275801080E1
:100AD5000D7580208008758040800375808043A057
:100AE500C07F647E00120B72E4F580E5A075F01FEF
:040AF500A4F5A022A2
:100AF900AB07EB75F06484600A240FF8E6FD7F0309
:100B0900120A85EB75F064847007EB75F00A84604E
:100B190015EB75F00A8475F00A84740F25F0F8E670
:100B2900FD7F02120A85EB75F00A84740F25F0F82F
:070B3900E6FD7F01020A85C1
:03000300020800F0
:10080000C0E0C0D075D000C002C003C004C005C0A5
:0308100006C00718
:100813007B207A00C2A8758C00758A007F0A7E004F
:10082300120B7230B2FDAF8CEFFEAD8A7C00E42D6B
:10083300FFEC3EFED3EF9488EE941350030209E4D9
:100843007F0A7E00120B7230B217AF8CEFFEAD8AB7
:100853007C00E42DFFEC3EFEC3EF9498EE943A4007
:10086300E6AF8CEFFEAD8A7C00E42DFFEC3EFED3B9
:10087300EF9498EE943A40030209E4120B6E30B2FF
:1008830017AF8CEFFEAD8A7C00E42DFFEC3EFEC378
:10089300EF9498EE943A40E6AF8CEFFEAD8A7C007D
:1008A300E42DFFEC3EFED3EF9498EE943A4003021E
:1008B30009E4120B6E30B2FD758C00758A0020B20C
:1008C3000930B2FD758C00758A00EB1BAE02700116
:1008D3001A4E70030209D930B2FD120B6E30B2FD0D
:1008E300120B6E30B217AF8CEFFEAD8A7C00E42D95
:1008F300FFEC3EFEC3EF9498EE943A40E6AF8CEFE4
:10090300FEAD8A7C00E42DFFEC3EFED3EF9498EE1F
:10091300943A40030209E4AF8CEFFEAD8A7C00E415
:100923002DF50DEC3EF50C120B6E30B258AF8CEF7B
:10093300FEAD8A7C00E42DFFEC3EFEC3EF9498EEFF
:10094300943A504130B217AF8CEFFEAD8A7C00E48D
:100953002DFFEC3EFEC3EF9498EE943A40E6AF8C45
:10096300EFFEAD8A7C00E42DFFEC3EFED3EF9498BE
:10097300EE943A506CAF8CEFFEAD8A7C00E42DF51B
:100983000DEC3EF50C758C00758A00C3EB9410EAF0
:100993006480948040030208CDEB9407EA6480945A
:1009A300804019E50A13F50AD3E50D94D0E50C94BC
:1009B3000750030208CD430A800208CDE50BC31399
:1009C300F50BD3E50D94D0E50C940750030208CD45
:1009D300430B800208CDE50A650BFFBFFF03850AC1
:0509E3000EC289D2A83C
:1009E800D007D006D005D004D003D002D0D0D0E0B4
:0109F80032CC
:100A0500020B40E493A3F8E493A34003F68001F2BC
:100A150008DFF48029E493A3F85407240CC8C333F2
:100A2500C4540F4420C8834004F456800146F6DFC1
:100A3500E4800B0102040810204080900B7DE47EC9
:100A4500019360BCA3FF543F30E509541FFEE493B6
:100A5500A360010ECF54C025E060A840B8E493A37D
:100A6500FAE493A3F8E493A3C8C582C8CAC583CAA8
:100A7500F0A3C8C582C8CAC583CADFE9DEE780BE60
:010B8900006B
:00000001FF
