:030000000209CA28
:0C09CA00787FE4F6D8FD75810B02093738
:040980007F147E0062
:0B098400EF1FAC0670011E4C70F62245
:0D09BC007F2AB2907E1E00DEFDDFF7D29094
:0109C900220B
:100969007F757E02B2907D1E00DDFDEF1F70011EB6
:06097900EF4E70F0D29079
:01097F002255
:0E098F007FA67E0E00EF1F70011EEF4E70F669
:01099D002237
:0E099E007F907E0100EF1F70011EEF4E70F67D
:0109AC002228
:0E09AD007F467E0500EF1F70011EEF4E70F6B4
:0109BB002219
:0408AB008F0BA90501
:1008AF007C08AB0BAA0112096912098FAF041CEF68
:1008BF0060151209BCEB30E0051209AD8003120977
:1008CF009EEBC313FB80E57C08E50BF4FBAF041C28
:1008DF00EF60151209BCEB30E0051209AD80031271
:1008EF00099EEBC313FB80E57C08AF041CEF60157A
:1008FF001209BCEA30E0051209AD800312099EEA25
:10090F00C313FA80E57C08E9F4FAAF041CEF601515
:10091F001209BCEA30E0051209AD800312099EEA04
:08092F00C313FA80E50209BCC4
:1008000075B07F120980AFB0EF2489601A24FC60B4
:100810001124FE6008147012E4F50B800D750B04B2
:100820008008750B088003750B0C75B0BF1209802A
:10083000AFB0EF2449601A24FC601124FE60081454
:100840007012750B01800D750B058008750B098002
:1008500003750B0D75B0DF120980AFB0EF2429606E
:100860001A24FC601124FE6008147012750B0280BB
:100870000D750B068008750B0A8003750B0E75B09D
:10088000EF120980AFB0EF2419601A24FC60112424
:10089000FE6008147012750B03800D750B0780083D
:0A08A000750B0B8003750B0FAF0BF7
:0108AA00222B
:1009370053A01F7580FF43A08053A01F75800143FC
:10094700A0A053A01F1208008F0A7E00EF65097050
:1009570002E50860F08E088F09AD09E4FF1208ABC5
:0209670080E32B
:00000001FF
