:0300000002095D95
:0C095D00787FE4F6D8FD7581180209A42B
:0C0AB6000A0DC0F9A4B0999282F880905B
:070AA400F58CF58A7F0AFEC4
:0B0AAB00EF1FAC0670011E4C70F6221D
:10080000E4F518D2AF758901D28C53A01F7580FF13
:1008100043A08053A01F75800143A0A053A01F7F59
:10082000647E00120AABE518600302093E309103B2
:1008300002093E751720120AA43091FDAF8CEFFE1D
:10084000AD8A7C00E42DFFEC3EFED3EF9488EE945D
:100850001340D3E4120AA4309117AF8CEFFEAD8A97
:100860007C00E42DFFEC3EFEC3EF9470EE94174045
:10087000E6AF8CEFFEAD8A7C00E42DFFEC3EFED3AC
:10088000EF9470EE9417400302093E7F017E001240
:100890000AAB2091C2AF171517EF700302092EE4BF
:1008A000F58CF58A3091FD309117AF8CEFFEAD8A53
:1008B0007C00E42DFFEC3EFEC3EF94B8EE940B40B9
:1008C000E6AF8CEFFEAD8A7C00E42DFFEC3EFED35C
:1008D000EF94B8EE940B5066AF8CEFFEAD8A7C00BF
:1008E000E42DF50BEC3EF50A7F017E00120AAB20E9
:1008F00091B5E517C39410509CE51794074015E592
:100900000813F508D3E50B94D0E50A940740864315
:1009100008808081E509C313F509D3E50B94D0E580
:100920000A94075003020895430980020895E508D8
:100930006509F4600302082685080C02082675186C
:1009400001E518B4011130910EAF0C120A5D7F322F
:0D0950007E00120AAB80EAE4F51802081FD1
:1009E90053A01F43A0EF8D8053A01FEF14B408003C
:1009F900504C900A0975F003A4C58325F0C583738B
:100A0900020A44020A3F020A3A020A35020A30027D
:100A19000A2B020A26020A217580018021758002AB
:100A2900801C75800480177580088012758010807D
:100A39000D7580208008758040800375808043A0F3
:100A4900C07F647E00120AABE4F580E5A075F01F53
:040A5900A4F5A0223E
:100A5D00AB07EB75F06484600A240DF8E6FD7F03A7
:100A6D001209E9EB75F064847007EB75F00A846088
:100A7D0015EB75F00A8475F00A84740D25F0F8E60F
:100A8D00FD7F021209E9EB75F00A84740D25F0F86B
:070A9D00E6FD7F010209E9FB
:10096900020800E493A3F8E493A34003F68001F29C
:1009790008DFF48029E493A3F85407240CC8C3338F
:10098900C4540F4420C8834004F456800146F6DF5E
:10099900E4800B0102040810204080900AB6E47E2E
:1009A900019360BCA3FF543F30E509541FFEE49353
:1009B900A360010ECF54C025E060A840B8E493A31A
:1009C900FAE493A3F8E493A3C8C582C8CAC583CA45
:1009D900F0A3C8C582C8CAC583CADFE9DEE780BEFD
:010AC2000033
:00000001FF
